:020000040000FA
:10000000A8150020496500004D650000F7060000B6
:1000100000000000000000000000000000000000E0
:10002000000000000000000000000000516500001A
:10003000000000000000000053650000B9610000EE
:1000400057650000EB0A00000000000000000000FF
:100050000000000000000000075400000000000045
:1000600000000000000000005765000000000000D4
:100070005765000057650000576500005765000090
:10008000CB60000000000000000000000000000045
:100090000000000000000000000000000000000060
:1000A000576500009D6200005765000000000000D9
:1000B000CB090000F50900005765000057650000F6
:1000C00000F002F800F032F80CA030C8083824180C
:1000D0002D18A246671EAB4654465D46AC4201D180
:1000E00000F024F87E460F3E0FCCB6460126334280
:1000F00000D0FB1AA246AB4633431847806D000080
:10010000A06D00000023002400250026103A01D332
:1001100078C1FBD8520700D330C100D50B607047BF
:100120001FB506F0C3FA1FBD10B510BD06F076FB73
:100130001146FFF7F5FF00F003FA06F08EFB03B45B
:10014000FFF7F2FF03BC06F095FB000001480160D9
:1001500001480047240006400103FF1F30B40C494A
:100160000C684A6823681068C0181060241D121DAE
:100170008C4207D28A4208D20C604A6030BC4000F0
:10018000400870470C00DC3CF6E70A00DC3AF3E775
:100190004013002010B504F070FDFE4800780028E0
:1001A0007ED00020FB490870FB48006800280AD078
:1001B000F9480068401EF8490860084600680028B1
:1001C00001D1F6490870F64800680028E8D0F448E4
:1001D0000068401EF249086008460068002877D190
:1001E00005F098FC05F069FF05F0CCFFED480068CC
:1001F00080218843EB49086004F0C9F804F00EF947
:10020000E948806A402188434030E74988620846CF
:10021000806A202188432030E34988620846806A4A
:10022000202188432030E0498862E048406A49152F
:1002300088434018DD4948620846406A09158843EA
:100240004018DA4948620846406AC9148843401891
:10025000D64948620846406A01210903884340188C
:10026000D24948620EF083F9D14800684008400046
:10027000D0490843CE4908600020CF49086100F00A
:10028000CEFBCE4800690921C9068843CB490861E5
:100290000A2005F0B3FF00F0D6FC0020C74900E0BB
:1002A00016E008610220C649086030BF00200860DF
:1002B00000F015FC05F078FF06F016F805F02FFFAA
:1002C00003F07FFF05F008FF4B20C000B449086031
:1002D00010BD10B5AF48007800280BD00020AD4904
:1002E0000870B8480088002804D0B6480088401E2E
:1002F000B4490880B14840680121890708400028B6
:1003000004D1AE4840680840002835D0AD48008888
:10031000002831D1C82005F079FF05F0FBFB05F07E
:10032000CCFE05F02FFF9F480068802188439D493F
:10033000086004F02CF804F071F89A4800688021F5
:100340008843984908609A480068400840009949E5
:100350000843974908600020974908610EF007F9A3
:1003600000F085FC05F020FF05F0BEFF05F0D7FE8C
:1003700003F027FF05F0B0FE93480078012807D16D
:100380000822924900F0EAF9002801D18E4908704C
:100390008F480078012808D110228E49022000F0F1
:1003A000DDF9002801D18A4908708B4800780128BE
:1003B00009D103228949022000F0D0F9002832D166
:1003C000854908702FE086480078012809D102226B
:1003D0008449104600F0C2F9002824D180490870F1
:1003E00021E08148007801280ED106227F490220B1
:1003F00000F0B4F9002816D17B4908707B49887059
:10040000C870087148710EE07948007800280AD059
:100410000520784908700422022000F09FF9002886
:1004200001D17349087010BD10B5734800780028D9
:100430007ED00020704908707048008800282AD0BB
:100440006E480088401E6D490880084600880028D4
:1004500021D16B480078002802D104F072FE1AE026
:1004600067480078012816D104F0B2FE654800788C
:10047000002810D0142005F0F8FE0520624908700D
:1004800003206249087051205A4908708920487039
:100490000120574908705E480078401C5C4908708C
:1004A00008460078322848DB0020087001203949CE
:1004B00008705548007800283FD053480078401E07
:1004C0005149087008460078002836D15148007814
:1004D000D22804D10DF050FF04F026FF2DE04D4846
:1004E0000078F3280FD04B480078F4280BD0494807
:1004F0000078F52807D047480078AB2803D0454856
:100500000078AC2819D13E480078012815D13F4821
:100510000078002811D03D480078401E3B49087003
:10052000052039490870512032490870892000E0BF
:1005300005E0487001202E49087001F087FC10BDCD
:1005400006F070F806F016F83348006A01210843F7
:10055000314908621F203149086000F0E1F90020AC
:10056000284908700120C00380892D49884202D1A2
:1005700001202449087005F0D2FD05F015FE05F0B4
:1005800061FD2048007800284FD00DF019FFFF20B2
:10059000F53047E0E6010020D8010020E10100200D
:1005A000DC01002000E0054000A0044000600440A1
:1005B000000001400000FA5A00E000E000C00540E1
:1005C00040200340E20100205E0100206301002082
:1005D000610100200A0300205F0100206B01002060
:1005E000600100206E0100206201002070010020E7
:1005F000C4010020C501002002000020EA01002003
:10060000E40100205501002056010020D501002002
:10061000E50100203A0100200000064000200440CF
:10062000AAAA000005F0F2FD01E009F049FF01F07F
:10063000F7FB05F0C1FE05F057FE3B483B498861DA
:100640003B480078012801D100F0B6F928E039488C
:100650003949C860FFF7E8FE38480078002806D01E
:1006600037480078002802D103F054FD05E03448F3
:100670000078002801D003F04DFD0DF079FC04F066
:1006800084FA2B480078002802D0012806D102E025
:10069000FFF71FFE03E0FFF77DFD00E000BF00BF96
:1006A000D5E710B50DF049FE0DF0A4FD04F083FE72
:1006B00024480078401C2349087008460078022826
:1006C00005DB01202049087000201E4908701F48E2
:1006D0000078401C1D49087008460078042809DB92
:1006E0000DF001FF00201949087001201849087019
:1006F0000DF008FF10BD00BF00BF00BF00BF00BF6E
:10070000BFF34F8F00BF00BF00BF12481249C8603F
:1007100000BF00BF00BFBFF34F8F00BF00BF00BFCF
:1007200000BF00BFFDE7000002C00000000006405F
:10073000E4010020AA55FA5A00000140EC01002013
:100740005501002001000020A00100200000002031
:10075000020000200400FA0500ED00E0FEB50546A9
:100760000E4617466248A900401802900298006899
:10077000C00FC007002801D10220FEBD002D03D00C
:10078000042D01D8402F01D90420F6E70298006813
:10079000400F40070121C90788423FD15548405DBD
:1007A000002836D1A80054494018029002980068E9
:1007B000B84201D20520E0E7681E80004F49085882
:1007C000009000241DE0A0080190305D0190641CA1
:1007D000305D0002019908430190641C305D000403
:1007E000019908430190641C305D0006019908439B
:1007F0000190641C0199009800F05DFB0098001DB9
:100800000090BC42DFD3F9B2284600F005FB00207F
:10081000B3E7284600F04CF90320AEE70120ACE72F
:1008200037480088002806D001281BD0022830D085
:10083000032859D144E033480068FF2809D2FF203B
:100840000130314908602F480068401C2D4908607C
:1008500007E000202B49086029480088401C2849EF
:10086000088042E027480068FF2809D2FF200004E2
:100870002549086023480068401C2249086007E0B9
:100880000020204908601E480088401C1C49088040
:100890002BE01C480068FF2809D2FF2000021A49FB
:1008A000086018480068401C1649086007E00020EE
:1008B0001449086012480088401C1149088014E05F
:1008C00010480068FF2809D2012000040E49086082
:1008D0000C480068401C0B49086004E000200949EE
:1008E00008600749088000E000BF00BF70470000B3
:1008F00018C00540BC0000207C0200206C020020D3
:10090000D0000020D4000020D8000020002806D00D
:10091000042804D8FE4A83009B18803BD96770479F
:1009200070B500F0B2FF01F087F905F07BFE05F02D
:1009300021FEF848006810210843F649086040216C
:100940000120FFF7E3FF80210220FFF7DFFFC02136
:100950000320FFF7DBFFE0210420FFF7D7FFEE4C79
:100960004020206080206060C020A060E020E06027
:10097000EA4C4020206010206060A0600820E06009
:100980002061E748E24948390860022048611F2594
:10099000ED06322005F03AFCDD4848380561400498
:1009A000DB4908394862DF48C862012000F0FDFADF
:1009B000012000F0EBFA70BD10B50020D449483991
:1009C0000861012000F0E9FA10BD10B51C2000F00C
:1009D000ECFAD548D5490862D54800690121890457
:1009E0000843D34908611C2000F0D7FA0120D149FF
:1009F000087010BD10B51D2000F0D7FACA48CE49C6
:100A00000862CB480069012189040843C84908618C
:100A10001D2000F0C2FA0120C649087010BD10B5B3
:100A20000020C249C8604861BF4808621F20C00159
:100A300088611C2000F0B9FA1C2000F0A7FA002001
:100A4000BD49C8604861B84808620120C003886198
:100A50001D2000F0AAFA1D2000F098FA10BD10B574
:100A60000020B249C8604861AF4808620920C0014F
:100A700088611C2000F099FA1C2000F087FA10BD54
:100A80000120C002A24948398860704701208002D5
:100A90009F49483988607047012040029C49483985
:100AA00088607047FF200130994948398860704755
:100AB000042800D97047964A303A8300D11800289C
:100AC00008D1934A483A526801231B061A40002A6B
:100AD00000D0EFE7072252070A6000BFEAE710B52F
:100AE00005F0A0FD00F0A9FA10BD10B588484838FF
:100AF00044680020C043864948398860002C02D1F0
:100B0000FFF7EDFF10BD600F400700281AD0E00F7F
:100B1000C007002804D0FFF7E2FF00F065FA5DE0AF
:100B2000012080072040002802D000F074FA55E030
:100B3000012040072040002850D0FFF7D0FF00F0F0
:100B400071FA4BE01F20C0042040002825D001206E
:100B5000C0052040002802D000F065FD3EE00120E5
:100B600080052040002802D000F0B6FD36E00120CC
:100B700040052040002802D000F006FE2EE00320B1
:100B8000C0042040002829D00320C004604948390F
:100B900088600020FFF78CFF20E00F20000220403B
:100BA00000281BD0FF2001302040002801D0FFF793
:100BB00079FF012040022040002801D0FFF76CFFA0
:100BC000012080022040002801D0FFF75FFF0120B4
:100BD000C0022040002801D0FFF752FF204601212B
:100BE000890608404A49483909680122920711409C
:100BF0000840002801D000F02BFA00BF82E7002057
:100C000000E0401C4D498842FBD370471E2000BFC6
:100C10000146401E0029FBD1704700B506203C4923
:100C200048394861FFF7F2FF0520394948394861E2
:100C3000FFF7E5FF364848384069042188433449C6
:100C40004839486100BD01203D49C86000BF3C48AB
:100C5000C068102108401028F9D1022038490861E5
:100C6000384839490860002035490860704710B598
:100C70002F480069022188432D49086124484838DB
:100C80004068012189070840002800D110BD204894
:100C9000483800690921C90688431D494839086157
:100CA0002348006980210840002805D00020214900
:100CB0000870FFF7B4FE23E003F083FA234840688E
:100CC000FF21013188434018204948600846406AA6
:100CD0008915884340181D4948621D48406808210D
:100CE000884308301A4948600846406A082188430A
:100CF00008301749486200200E490870FFF7AFFE20
:100D00000A2005F07BFA002001494839086021E0FB
:100D100048C0054000E005406C0200207C02002035
:100D2000100000B004400000FFFF000000A00440DD
:100D300090020020B8000020008004400A28000033
:100D4000000006400200FA5A00200640004004401D
:100D500000600440FFF777FF97489849086008460D
:100D60004068012189070840002802D1FFF7B7FE3B
:100D70008CE704209249086030BFFFF7B0FE1420D2
:100D80009049088090480078002823D000208E49A0
:100D900008708E4800698E49084088420DD18B4802
:100DA00000690121890488438849086108468068F0
:100DB000012802D1FFF731FF68E780484068012130
:100DC00089070840002805D08048006902210843AF
:100DD0007E490861FFF783FE00BF57E77749C96B7B
:100DE000012282409143754AD1637047042800D99B
:100DF0007047724A18328300D11800220A6000BF7F
:100E0000F6E7042800D970476C4A18328300D118DD
:100E100012070A6000BFF6E710B5042800D910BD1C
:100E2000664B183384001A1905235B070B431360C4
:100E300000BFF4E761498031486002215F4A803297
:100E4000D16000BF5D498031C9680222114000298C
:100E5000F8D15A49803189685E4A1160704770B58F
:100E600006460B46402B10D2701E80005A49085887
:100E7000990844182046FFF7DDFF9807C10E554832
:100E80000068C840C5B2284670BD0020FCE770B5B8
:100E900006460B46102B0CD2701E80004E49085897
:100EA000990044182046FFF7C5FF4A4805682846C0
:100EB00070BD0020FCE7414A803250609160012201
:100EC0003E4B8033DA6000BF3C4A8032D268D207A2
:100ED000D20F002AF8D17047F8B506460C461746DF
:100EE000402C1BD2701E80003B490858A1084018B6
:100EF00000900098FFF79EFF36480568A007C10ED6
:100F0000FF208840294681430D46A007C10E384680
:100F10008840054329460098FFF7CDFFF8BDF0B59E
:100F200005460C461646102C09D2681E80002A4938
:100F30000858A100471831463846FFF7BCFFF0BDFE
:100F40001E494031886302211C4A8032116000BF73
:100F50001A4980310968022211400029F8D1174945
:100F60004031C96B1D4A11607047144A403290638A
:100F7000D1630122114B80331A6000BF0F4A8032C7
:100F80001268D207D20F002AF8D17047C206D20EDB
:100F900001219140124A11607047C206D20E012110
:100FA00091400F4A803211607047C206D20E012173
:100FB00091400C4A11607047100000B000C005401D
:100FC00040200340E2010020B800002090020020F1
:100FD00080000400E40000206C020020DC000020FF
:100FE00000E100E080E200E010B50020C043FA49D3
:100FF00088600120F949086100208860F649C860CE
:10100000FFF756FD012403E02046FFF7EFFE641CC6
:10101000042CF9D910BDF148006902210843EF49B9
:1010200008617047ED48006904210843EB490861F5
:1010300001204007E84988607047E74800690921B6
:10104000C9060843E44908610120400688607047EA
:1010500001208006E0498860704770B5DF488068ED
:10106000012823D1DE4D002402E000202855641C15
:10107000042CFAD9D9480079012817DCD7488078A0
:10108000002813D1D5490979D64A5054D349087953
:10109000FFF7A4FED1480069012109040843CF49A4
:1010A000086100210846FFF7B7FE70BD0020FFF77A
:1010B000FFFC00BFF9E710B5C848806801281BD1C4
:1010C000C6480078812817D1C4480079012813DC6C
:1010D000C2480079C3490C5C21460020FFF745FF58
:1010E000BE4800690121C9030843BC4908610121C8
:1010F0000020FFF791FE10BD0020FFF7D9FC00BFD4
:10110000F9E770B5B64DB5480069202108400028C0
:1011100051D0B248807800281DD1B0498860084677
:10112000006910210843AD490861012405E0012050
:1011300028552046FFF75AFE641C042CF7D9A7480F
:101140000069012109040843A449086100210846F7
:10115000FFF762FE70BDA148807801282BD19F491E
:10116000886008460069102188439C490861002472
:1011700013E000202855002C0ED02046FFF741FE3A
:1011800095480069611EC840C007C00F002803D001
:1011900000212046FFF740FE641C022CE9D98F484D
:1011A00000690121090408438C49086100210846AF
:1011B000FFF732FECEE70020FFF77AFC00BFC9E759
:1011C00010B5864881680020FFF7CFFE834880680D
:1011D000012807D1012403E02046FFF712FE641C1A
:1011E000022CF9D90020804908607C48006903215D
:1011F000890308437949086101210020FFF70CFEAB
:1012000010BD10B50020FFF753FC10BDF0B504462B
:101210001D062D0E2D061604FF273F043E403543C4
:101220000E023F123E403543E6B235432846F0BD3C
:10123000F8B56E4804686948C0886B4909688842F7
:1012400003D26648C088684908606748006800287B
:101250000BD100210846FFF7DFFD5F4880690121BF
:10126000090708435C4988612DE000250DE0E3781B
:10127000A27861782078FFF7C9FF0646A8003146BA
:10128000FFF773FE241D681CC5B2102DEFDB564816
:10129000006840280ED340210020FFF7BDFD5348D1
:1012A00000684030514908604F48006840384E4956
:1012B000086008E04C480068C1B20020FFF7ACFDB0
:1012C000002049490860F8BD70B50025002428E0D9
:1012D0004248C1780C206043454A105C81421FD1CE
:1012E0003E4801790C20604380184078814217D134
:1012F0003A4881780C2060438018807881420FD171
:101300000C206043114640188088374908600C2043
:10131000604311464018806834490860012502E0A6
:10132000641C102CD4D300BF002D03D10020FFF784
:10133000BFFB70BD294800690121C9030843274943
:101340000861FFF775FF00BFF3E710B52348006998
:10135000202188432149086108460069402108434B
:101360001E49086108468078002805D008460069B3
:1013700020210843194908611848807817490873E3
:101380000846006901210904084314490861002145
:101390000846FFF741FD10BD70B5104800784506BE
:1013A0006D0E0E48007880210840002802D00020F1
:1013B000FFF77EFB002D1FD108488078012840D11F
:1013C000064800690B4908430449086100210846A2
:1013D000FFF722FD70BD000000C005409002002014
:1013E000BC000020CC000020C8000020C400002069
:1013F0000400002080010100022D1FD1FB488078ED
:1014000000281ED1F94800794406640E002C18D03B
:10141000022C16D8F5488068012812D1F4490855E5
:101420002046FFF745FBF1480069E9030843EF490F
:10143000086100210846FFF7EFFCCBE70020FFF72B
:1014400037FB00BFC6E770B5E848007845066D0E6B
:10145000E648007880210840002802D00020FFF7ED
:1014600027FB002D14D1E1488078012845D1DF48C1
:10147000006980218843DD49086108460069DD492B
:101480000843DA49086100210846FFF7C5FC70BD32
:10149000022D32D1D548807800282ED1D34800794A
:1014A0004406640E002C13D1D04800692021084066
:1014B000002822D00020CE490870CC480069E903FA
:1014C0000843CA49086100210846FFF7A5FCDEE78A
:1014D000022C12D8C548806801280ED10020C449CA
:1014E0000855C2480069012109040843BF49086141
:1014F00000210846FFF790FCC9E700BFC7E770B5B9
:10150000BA4800784406640EB84800788021084044
:10151000802802D00020FFF7CBFA002C1AD1B34864
:10152000006980210840002804D002210020FFF734
:101530001CFD03E000210846FFF717FDAB480069DA
:101540000121C9030843A949086102210020FFF7CE
:1015500063FC70BD012C1AD1A448806801282FD1EA
:10156000A248407900282BD1A0480079012827DC27
:1015700000210846FFF7F9FC9C480069E103084395
:101580009A49086102210020FFF746FCE1E7022C9E
:1015900016D19648007945066D0E022D10D8944854
:1015A000465D31460020FFF7E0FC90480069A1034A
:1015B00008438E49086102210020FFF72DFCC8E78F
:1015C00000BFC6E710B589484078030005F0A6F9CA
:1015D0000C070A250D25101316191C1F2225FFF7CD
:1015E0008EFF1EE0FFF72FFF1BE0FFF7D5FE18E090
:1015F000FFF7ABFE15E0FFF767FE12E0FFF701FE15
:101600000FE0FFF7DDFD0CE0FFF77BFD09E0FFF7E2
:1016100052FD06E0FFF721FD03E00020FFF748FA46
:1016200000BF00BF10BD1CB53320C00472498860E4
:101630000020FFF7E6FB704840680121890408405C
:10164000002840D1694800690321C90388436749DC
:1016500008610020FFF774FC6848006801900420CE
:10166000FFF76EFC654800680090604901980870BB
:10167000FF21090201980840000A5C494870FF21D7
:10168000090401980840000C584988700198000E20
:10169000C87000980871FF21090200980840000AEC
:1016A000524948710098000CC880084604786021AF
:1016B0000C40002C02D1FFF785FF1CBD202C06D169
:1016C00000F085FAF9E7012080044B49886000208A
:1016D000FFF7EEF900BFF0E710B50120800546499D
:1016E00088604748807C02281AD1002044498874C9
:1016F00008464069434988420FD1414880694249C0
:1017000088420AD1002404E0A0000021FFF72DFC4C
:10171000641C402CF8D3FEF719FD04203849887466
:101720003248006940210840002813D02F48006942
:1017300088432E4908610846007B2F49C860002075
:10174000FFF7B6F9294800690121090488432749B0
:10175000086110BD2548C088002810D023480069C2
:10176000012109040840002809D1FFF761FD1F4845
:1017700000690121090488431C490861E9E7002048
:10178000FFF796F900BFE4E710B5012040051A49BC
:1017900088601B48807C01283CD1002409E0A0001F
:1017A000FFF7CEFB15480168A200154814308150A0
:1017B000641C102CF3D30220114988740846406938
:1017C0001049884204D10E4880690F4988423BD0B5
:1017D0000E480078012108430C4908700C48007835
:1017E000042831D102F05EFE2EE0000090020020BD
:1017F000BC0000200001010000C00540DC0000200A
:10180000A4020020AA42895AFF7162CC2C01002058
:10181000AC0100202E48406D0121490208400028FB
:1018200012D02B48406D8843294948650020FFF7B6
:1018300087FB28480068264908700846406D01214A
:101840004903084322494865234800690121C90327
:101850000840002804D100210846FFF7DDFA0CE01B
:101860001E484068012109060840002805D11B4890
:101870008069C90008431949886117480069012136
:10188000C90388431449086110BD002003E000210A
:10189000134A1154401C0528F9D3002003E000210D
:1018A000104A1154401C0428F9D300210A4A11702F
:1018B00051709170D17011715171D180916011731B
:1018C00011460969012252041143034A116170470C
:1018D000A4020020DC0000209002002000C005408F
:1018E000BC000020CC00002010B5D848007821288A
:1018F00025D1D748406D012109030843D4494865E3
:10190000D248007901281ADCD0488078002806D116
:101910000846406D032189028843CD494865CB487C
:101920008078CB494874C9480069012109040843FB
:10193000C649086100210846FFF76EFA10BD002075
:10194000FFF7B6F800BFF9E710B5C04800782128C6
:1019500019D1BE480069012109040843BB49086147
:10196000BB48406D0121C9020843B9494865B748E1
:101970000079012807DCB548C078087400210846C2
:10198000FFF74AFA10BD0020FFF792F800BFF9E711
:1019900010B50120AE49887400210846FFF73CFAD3
:1019A00010BD10B5A9480069012109040843A749E1
:1019B0000861A748406D012149020843A4494865D0
:1019C00000210846FFF728FA10BD10B59F4800789F
:1019D000212811D19D48007900280DD19B48C0785D
:1019E000022802D1FFF7DDFF10BD9848C078032818
:1019F00002D1FFF7CDFFF7E70020FFF759F800BF4E
:101A0000F2E710B591480078A1281ED19048406DAA
:101A1000012109030840002802D101208C494874A3
:101A20008A480079012810DC8948417C0020FFF7B2
:101A30009CFA864800690121C9030843834908616B
:101A400001210020FFF7E8F910BD0020FFF730F872
:101A500000BFF9E710B57D480078A1281BD17C486C
:101A6000406D0121C90208437949486577480079EA
:101A7000004300280FD10846007C7649086073486F
:101A800000690121C9030843704908610121002050
:101A9000FFF7C2F910BD0020FFF70AF800BFF9E711
:101AA00010B500206C490860684800690121C9032D
:101AB00008436649086105210020FFF7ADF910BD14
:101AC00038B566480078022108436449087000244C
:101AD0000AE0A1005E48143040580090A000009930
:101AE000FFF743FA601CC4B2102CF2DB57480069C0
:101AF0000121C90308435549086140210020FFF72F
:101B00008BF95348407DAB2808D154480078022116
:101B100088435249087004205149087038BD10B5F7
:101B20004B4801780020FFF720FA4848006901215E
:101B3000C90308434549086101210020FFF76CF9FA
:101B400010BD10B5002044490860404800690121DB
:101B5000C90308433D49086108210020FFF75CF9EB
:101B600010BD10B539480078A1282BD137488068BE
:101B7000012827D135480079002814D13348C0788E
:101B8000012802D1FFF7DDFF10BD3048C0780228E0
:101B900002D1FFF7C4FFF7E72C48C078032811D122
:101BA000FFF78EFFF0E72948007901280AD128487D
:101BB000407C012806D12548C078012802D1FFF7D2
:101BC0006FFFE1E70020FEF773FF00BFDCE710B511
:101BD0001E484078030004F0A1FE0C19070A0D19F5
:101BE0001919191910131619FFF7BBFF12E0FFF7A7
:101BF00031FF0FE0FFF705FF0CE0FFF7E6FE09E01D
:101C0000FFF7A2FE06E0FFF76FFE03E00020FEF7FD
:101C10004FFF00BF00BF10BD10B500200E49086087
:101C20000A4800690121C9030843084908610521E0
:101C30000020FFF7F1F810BD7D2005490874012050
:101C400048740020887448657047000090020020A6
:101C5000A4020020EC000020C80000202C0100207D
:101C6000AC01002030B591B000240BE000206100F1
:101C70004D4A505261004D4A505261004C4A5052F8
:101C8000601C84B27E2CF1DB052004F0EEFA002506
:101C900018E000240AE0A000072109034018A90168
:101CA0004058A10001AA5050601C84B2102CF2DBF5
:101CB000A9010122D203881801AA102104F089F990
:101CC000681C85B2162DE4DB3A483B49C860002405
:101CD00005E00020A10001AA5050601C84B2102C25
:101CE000F7DB01AA1021354804F073F901AA10218D
:101CF0004320400204F06DF901AA1021304804F09D
:101D000068F901AA10218720000204F062F911B0DD
:101D100030BDFFB581B005460E461746002404E0ED
:101D2000285D28490855601C84B2402CF8DB00244B
:101D300005E0305DE119234A5054601C84B20498D8
:101D40008442F6DB1F4A4021284604F001F90128AD
:101D500001D100BFFEE705B0F0BDFFB581B005467B
:101D60000F461646002404E0385D16490855601CED
:101D700084B204988442F7DBA819124A402104F087
:101D8000E7F8012801D100BFFEE7A9190846403055
:101D90000C4A4032402104F0DBF8012801D100BF99
:101DA000FEE705B0F0BD000068090020640A0020CD
:101DB000600B0020AA55FA5A0000014080850000FF
:101DC00080860000620E002070B5142500BF681EDA
:101DD000C5B20024FB48006810210840002801D14A
:101DE00001200443F8480078A04205D0022004F006
:101DF0003CFAF54804701425002DE8D1F24800782B
:101E0000C007C00F002803D00120F049087002E08D
:101E10000020EE490870EC480078ED49087070BD6C
:101E200010B50020EB4948700320EB4908700220F0
:101E3000EA4908700120EA4908700620E94908705B
:101E40000520E9490870FFF7BFFF10BD10B5002459
:101E5000DC48006810210840002801D1012004431B
:101E6000E24800680121C9030840002801D102208E
:101E70000443D5480078A04205D00A20DC49087008
:101E8000D148047044E0DA480078002800D110BD41
:101E9000D7480078401ED6490870084600780028C8
:101EA00036D1C9480078CA49097848400446002C10
:101EB00000D1ECE7C4480078C5490870E007C00FBE
:101EC000002816D0C0480078C007C00F002807D0EF
:101ED0000120BE49087003F07BF9FEF76DFD08E0B4
:101EE0000020C4490870B949087003F02AF9FEF7C8
:101EF00017FD0220204002280AD1B34800780221B1
:101F00000840002802D00CF010FB01E00CF01CFB94
:101F100000BFBCE710B5B848007800285CD0B748CF
:101F2000B7490978405CB74909784840B649087014
:101F30000846007800283ED0B4480078002807D131
:101F40000220B2490870AF480078B149087040E0FB
:101F5000AF480078AB490978884224D1AB48007873
:101F6000401EAA49087008460078002831D1A849C7
:101F70000870A4480078A149A14A127888540846FC
:101F8000007B0E210840042823D19C48C07A80069B
:101F9000800E20281DD1FFF765FE08F091FA002081
:101FA0009C49087015E0022098490870954800780F
:101FB000974908700DE00020944908709048007817
:101FC000401C8F49087008460078112801DB00206A
:101FD000087000208849087010BD0021002004E02E
:101FE0007C4A125C1143421CD0B20828F8DB00295D
:101FF0000BD00122884B1A70002004E00022754BA0
:102000001A54421CD0B20828F8DB0021012004E059
:10201000734A125C1143421CD0B21028F8DB00292D
:102020000BD001227D4B1A70012004E000226C4B82
:102030001A54421CD0B21028F8DB0021012004E021
:10204000654A125C1143421CD0B20328F8DB002918
:102050000BD00122724B1A70012004E000225E4B6B
:102060001A54421CD0B20328F8DB5C4A5278002A8A
:1020700005D001226B4B1A700022584B5A70002178
:10208000012004E0574A125C1143421CD0B20528DB
:10209000F8DB00290BD00122634B1A70012004E009
:1020A0000022504B1A54421CD0B20528F8DB002203
:1020B0005E4B1A7070475E490978A02924DB5C49A1
:1020C0000978A72920DC0121534A11705949097860
:1020D00001290BD13F490978554A12785207520F0E
:1020E000554B9A5C11433B4A117048E139490978D4
:1020F0004F4A12785207520F4F4B9A5CFF235A40B7
:102100001140344A11703AE149490978B0291EDB7F
:1021100047490978CF291ADC0121414A1170454904
:10212000097801290CD142490978B0394900434A5C
:10213000505A0321284A11705070011291701EE10B
:102140000321254A117000215170917017E138491F
:102150000978A82928DB36490978AA2924DC012135
:10216000304A11703349097801290DD102211B4AE7
:102170001170114649782E4A1278A83A2E4B9A5C73
:102180001143164A5170FAE00221144A11701146A7
:102190004978274A1278A83A274B9A5CFF235A407D
:1021A00011400E4A5170EAE02249097801297DD197
:1021B0001E490978052961DA1C49097800294DD0A2
:1021C000002047E000A004405A010020E401002064
:1021D0005C010020630100206B0100206E010020E3
:1021E0000A03002070010020C50100200080044087
:1021F0005D010020E101002031010020FC020020EF
:102200003701002032010020340100203501002078
:1022100033010020550100205E01002061010020F3
:102220005F01002060010020620100203B010020CE
:102230003A0100204D010020726E0000326E000055
:10224000811CF84A515CF84A1278914200D17047DB
:10225000411C88B2F54909788842F1DBF2490A78D5
:10226000F2490978891CEF4B5A54F0490978491C06
:10227000EE4A11700121EE4A117080E0EA490978B6
:1022800078297CDA0121EB4A1170EB4A1170E6499A
:102290000978C910491C515CE34A12785207520F61
:1022A000E64B9A5C1143E04A127800E004E0D21059
:1022B000521CE14B995462E0DC490978002941D075
:1022C000DA490978891CD74A515CD74A1278914279
:1022D0000ED10022D5490978891CD24B5A540121CC
:1022E000D34A1170D1490978491ED04A117029E0AA
:1022F000002023E0811CCB4A515CCB4A12789142EA
:102300001AD107E0C11CC74A525C811CC54B5A5404
:10231000411C88B2C5490978491E8142F2DC00227D
:10232000811CC04B5A540121C14A1170BF49097820
:10233000491EBE4A11708AE7411C88B2BB49097820
:102340008842D7DBB8490978782918DA0121B94AD7
:102350001170B94A1170B4490978C910491C515C0F
:10236000B14A12785207520FB44B9A5CFF235A407D
:102370001140AD4A1278D210521CAF4B995400BF95
:1023800065E718B5AE480078002800D118BDAD4803
:102390000068401CAB4908600846006849688842EC
:1023A0007CD30020A7490860A74800888000A7497F
:1023B00009684018406800010009A2494860A24825
:1023C00000888000A14909684018C17868460170FA
:1023D0009D48008880009D490968401881786846BA
:1023E00041700024007880210840802800D1012419
:1023F0006846017870200140684601700078102816
:1024000014D1012092490870002C07D091484078DF
:102410006946497808438F4948702DE08D484078D7
:102420006946497888438B49487025E068460078BA
:10243000202804D168464078864908711CE0684627
:102440000078302818D168464078774908700846E7
:102450000078E02807DB08460078E72803DC084618
:1024600000784038087000207B490870002C01D0AB
:1024700001200870FFF71FFE73480088801C724916
:10248000088008460088498888423CDB7348007809
:10249000002804D16A490870FFF79FFD33E06F48B8
:1024A000007801280FD16E480078401C6C490870F4
:1024B000084600784978884205DB002060490870AA
:1024C000FFF78BFD62E76748007880006649401897
:1024D000006C5E4908600846006863494031401856
:1024E0005A4908600020574908600A2048600020C7
:1024F000554908805548006800884880534800685E
:1025000008305249086000BF40E738B59320000208
:10251000C06B5649884201D0012038BD5448554906
:102520000978405C850054482818046C684604709B
:102530002004010E684641702002010E6846817039
:10254000210EC1700078002801D10120E5E768461E
:102550000078030004F0E2F908FD05335496A4BCAA
:10256000FCFD01203A49087068464078012819D1DD
:1025700068468078C106C90E684681703648007882
:10258000002807D0334840786946897808433149A4
:10259000487013E02F4840786946897888432D4970
:1025A00048700BE068464078032807D12A48007835
:1025B000002803D06846807826490871F1E0264853
:1025C0000078002807D01748007869464978084302
:1025D0001449087006E01348007869464978884332
:1025E00010490870012012490870684680780E4929
:1025F000087008460078002801D001208DE7D0E05F
:1026000001201E49087000201D494870887012483A
:102610000078002805D06846407848706846807881
:102620008870BEE0630100203A0100203B010020D9
:102630005E010020610100200A030020726E00008C
:1026400095010020980100208C01002090010020BD
:1026500062010020700100204D0100208301002054
:102660008401002082010020809700000000AA550C
:102670004E6B000039010020809000005F010020B7
:102680006B0100200120F74908700020F6494870CE
:10269000F6480078012802D168464078487080E00A
:1026A0006846407802280FD1F048007801280BD105
:1026B000EF4908700520EF4908700020487068460F
:1026C000807888700020C8700020EB49087068E0AE
:1026D000E6480078002847D0E848007800280CD069
:1026E000FFF77BFCE6480078022803D10020E3498D
:1026F000087012E70020E049087068464078E14918
:10270000087068468078DE4908700020DE4908704D
:102710006846C07848700020DC490870D9480078C5
:102720008000DB494018006CDA4908600846006800
:10273000D74940314018D74908600120CF49087077
:102740000020D5490860012048600020D34901E0FD
:102750000EE025E00880CF48006800884880CD481A
:1027600000680830CB4908600020C349087018E0B1
:10277000BE48007800280FD00120C9490870002009
:10278000C8490870C8482818C24908600120BF49D4
:1027900008700020C54908700020B749087000E0A3
:1027A00000BF00BF0020B8E610B5C148007800287F
:1027B00011D10120BF490870BD4908700020BE49F1
:1027C0000880002404E00020BC490855601CC4B205
:1027D000402CF8DB2FE00020B5490870B84800789D
:1027E000002806D140230022B449B648FFF791FAE9
:1027F00021E0B3480078012807D140230022AF49E7
:1028000043204002FFF785FA15E0AD480078022822
:1028100006D140230022A949AB48FFF77AFA0AE023
:10282000A7480078032806D140230022A349872027
:102830000002FFF76EFA10BD10B59D480078002821
:102840002BD0A2480078002827D18B480078AF28E9
:1028500000D110BD97480078402805DB002086494C
:102860000870FFF7A1FFF4E7834800789349914A85
:10287000127888548F480078401C8E4908707B4835
:1028800001788E488B4A127881548A480078401C1F
:102890008849087000207849087077480078F22845
:1028A00026D10020744908707048007800280ED0A6
:1028B0008748007800280BD10120854908700BF06B
:1028C000E6FD02F085FCFEF777F80BF025FE32E21C
:1028D0007F4800780128FAD100207D4908700BF06C
:1028E000D6FD02F02EFCFEF71BF80BF015FEEEE70E
:1028F00061480078AE2812D100205F4908705B481B
:1029000000780028E3D073480078012803D1002024
:1029100070490870DBE701206E490870D7E7564818
:102920000078F72812D10020534908704F480078EA
:102930000028CCD068480078002803D101206649DF
:102940000870C4E7002064490870C0E74A4800786E
:10295000D12812D100204849087044480078002846
:10296000B5D05E480078012803D100205B4908708B
:10297000ADE7012059490870A9E73F480078D328FE
:102980002AD100203C4908703848007800289ED0A1
:10299000072000030079524908700720000340799E
:1029A0005049087007F02CFD01204F4908704F482E
:1029B0000078401C4D49087008460078132801DB58
:1029C0000020087000204A4908700BF0C5FC0BF08D
:1029D000DDF80BF05CFD7AE727480078F62816D181
:1029E00000202549087021480078002892D04148ED
:1029F0000078401C3F49087008460078092801DB30
:102A0000002008700BF005FC0BF041FD5FE71A4851
:102A100000788D287DD10020174908701348007870
:102A200000288ED00720000300792D490870072068
:102A3000000340792B49087007F0E2FC01202A4985
:102A400008702A480078002803D10120274908701F
:102A500055E02648007801284ED10220234908700D
:102A60004DE056E0600100206E0100204D01002085
:102A7000C4010020C50100203A010020950100207A
:102A800083010020820100208401002094010020A5
:102A90008097000090010020980100208C01002008
:102AA0005101002079010020C09000003901002070
:102AB0007801002076010020140200201A03002073
:102AC0007701002080850000808600004C010020F6
:102AD000E401002054010020530100205201002095
:102AE0001702002019020020F0010020EE01002052
:102AF00012020020ED0100200020FC490870002097
:102B0000FB4908700BF028FC0BF040F80BF0BFFC01
:102B1000DDE6F84800788E2832D10020F5490870AB
:102B2000F54800780028F3D0072000030079F34926
:102B30000870072000034079F149087007F060FC35
:102B40000120F0490870E94800780A2803D10920DB
:102B5000E64908700AE0E5480078092803D10B200F
:102B6000E249087002E00A20E04908700020E049CC
:102B700008700BF0F1FB0BF009F80BF088FCA6E6EF
:102B8000DC4800788F2832D10020DA490870DA4812
:102B900000780028BCD0072000030079D7490870CE
:102BA000072000034079D649087007F029FC01206E
:102BB000D4490870CD480078042803D10320CB49BC
:102BC00008700AE0C9480078032803D10520C749E6
:102BD000087002E00420C54908700020C44908704C
:102BE0000BF0BAFB0AF0D2FF0BF051FCF2E3C14844
:102BF0000078902832D10020BE490870BE48007885
:102C0000002885D0072000030079BC490870072000
:102C100000034079BA49087007F0F2FB0120B94976
:102C20000870B24800780E2803D10C20AF49087014
:102C30000AE0AE4800780C2803D10D20AB4908709B
:102C400002E00E20A94908700020A94908700BF085
:102C500083FB0AF09BFF0BF01AFCBBE3A54800784E
:102C6000912832D10020A3490870A3480078002899
:102C700085D0072000030079A049087007200003D1
:102C800040799F49087007F0BBFB01209D490870FF
:102C900096480078062803D10720944908700AE076
:102CA00092480078072803D108209049087002E074
:102CB00006208E49087000208D4908700BF04CFBEF
:102CC0000AF064FF0BF0E3FB84E38A480078922863
:102CD00032D100208749087087480078002885D0C5
:102CE0000720000300798549087007200003407918
:102CF0008349087007F084FB0120824908707B48F3
:102D00000078102803D10F20784908700AE077482E
:102D100000780F2803D111207449087002E01020B8
:102D2000724908700020724908700BF015FB0AF018
:102D30002DFF0BF0ACFB4DE36E4800789C2812D1C0
:102D400000206C4908706C480078002885D06E48D7
:102D50000078002803D000206B4908703AE3012076
:102D60006949087036E363480078DA281AD10020F0
:102D700060490870604800780028A5D06348007852
:102D800063490978884203DB00206049087004E049
:102D90005E480078401C5D4908700AF0F7FE0BF0B1
:102DA00076FB17E353480078D0287AD100205149A8
:102DB000087051480078002886D0564800781228BC
:102DC000B9D14B48007800280FD10120484908703C
:102DD000002051490880002404E0FF204F49085595
:102DE000601CC4B27E2CF8DBF4E20020404908707D
:102DF00046480078082800DA2BE549480078012881
:102E000006D17E2342024549C003FEF7A6FFE1E258
:102E100043480078022807D17E230522D2013F498A
:102E20008003FEF79AFFD5E23D480078032807D1DA
:102E30007E23020239490120C003FEF78EFFC9E25A
:102E400037480078042807D17E230722D20133496E
:102E50004003FEF782FFBDE231480078052807D124
:102E60007E2300222D4921208002FEF776FFB1E269
:102E70002B480078062807D17E238022274921206D
:102E80008002FEF76AFFA5E225480078072809D1ED
:102E90007E23FF220132214921208002FEF75DFFBF
:102EA00098E23FE01E480078082806D17E23802261
:102EB0001A490003FEF751FF8CE2194800780928EF
:102EC00007D17E23FF2201321449D001FEF745FFCE
:102ED00080E213480078002886D17E23FF228132C9
:102EE0000E490120C003FEF738FF73E2EE01002017
:102EF000120200203A0100204D010020170200209C
:102F000019020020F00100203D020020FF010020F6
:102F100000020020EC01002014020020FA0400202E
:102F20001D020020FD480078D8280AD10020FB4966
:102F30000870FB48007800288DD00120F9490870FE
:102F400048E2F6480078D9280AD10020F3490870F1
:102F5000F348007800288AD00020F249087039E24E
:102F6000EE480078E7280DD10020EC490870EC48C5
:102F70000078002887D00120EB4908700020EB4939
:102F8000087027E2E5480078D72818D10020E349E7
:102F90000870E348007800288ED0E54800780128C2
:102FA0000ADDE3480078401EE14908700120E1494C
:102FB00008700BF06CFA0DE20BF0AEFA0AE2D7489B
:102FC0000078D62818D10020D4490870D448007859
:102FD00000288AD0D648007805280ADAD448007834
:102FE000401CD34908700120D24908700BF04FFAF9
:102FF000F0E10BF091FAEDE1C8480078D42817D140
:103000000020C6490870C6480078002898D0CA48F1
:103010000078052809DAC8480078401CC6490870BD
:1030200007F0EEF90BF033FAD4E10BF075FAD1E1C9
:10303000BA480078D52814D10020B8490870B8489B
:10304000007800288BD0BC480078012887DDBA487A
:103050000078401EB849087007F0D2F90BF017FA53
:10306000B8E1AE48007893280CD10020AB49087035
:10307000AB480078002884D00020B0490870FFF7E2
:1030800093FBA7E1A548007894280CD10020A34920
:103090000870A348007800288DD00120A749087047
:1030A000FFF782FB96E19D48007895280CD100201F
:1030B0009A4908709A480078002899D002209F49C0
:1030C0000870FFF771FB85E19448007896280CD1D1
:1030D00000209249087092480078002888D0032088
:1030E00096490870FFF760FB74E18C480078DC2893
:1030F0001ED100208949087089480078002893D0A3
:103100008F480078012803D18E48007812288BD090
:1031100001208B49087000208A49087013208A49D1
:1031200008700BF019F90AF031FD0BF0B0F951E11C
:103130007A480078DD281ED1002078490870784848
:10314000007800288CD07E480078022803D17D4882
:103150000078122884D0022079490870002079492B
:1031600008701320784908700BF0F6F80AF00EFD8D
:103170000BF08DF92EE169480078DE281ED1002081
:10318000664908706648007800288BD06C48007843
:10319000032803D16B480078122894D00320684993
:1031A00008700020674908701320674908700BF009
:1031B000D3F80AF0EBFC0BF06AF90BE15748007802
:1031C000DF281ED100205549087055480078002896
:1031D00016D05B480078042803D15A48007812289A
:1031E0000ED004205649087000205649087013205C
:1031F000554908700BF0B0F80AF0C8FC0BF047F91D
:10320000E8E046480078E0281ED1002043490870D5
:1032100043480078002816D049480078052803D193
:103220004848007812280ED0052045490870002033
:10323000444908701320444908700BF08DF80AF0D7
:10324000A5FC0BF024F9C5E034480078E1281ED134
:1032500000203249087032480078002816D03848DB
:103260000078062803D13748007812280ED00620AF
:103270003349087000203349087013203249087020
:103280000BF06AF80AF082FC0BF001F9A2E0234887
:103290000078E2281ED100202049087020480078DC
:1032A000002816D026480078072803D12548007842
:1032B00012280ED0072022490870002021490870EA
:1032C0001320214908700BF047F80AF05FFC0BF05F
:1032D000DEF87FE011480078E32837D100200F495D
:1032E00008700F480078002874D015480078082826
:1032F00003D11448007812286CD0082010490870B7
:1033000000201049087013200F4908700BF024F8B2
:103310000AF03CFC0BF0BBF85CE000003A01002036
:103320004D0100201B0200205001002076010020EA
:1033300019020020F0010020170200207701002070
:103340001D020020EC010020EE010020FA48007868
:10335000E4281ED10020F8490870F84800780028B9
:1033600038D0F7480078092803D1F64800781228A9
:1033700030D00920F24908700020F249087013206B
:10338000F14908700AF0E8FF0AF000FC0BF07FF842
:1033900020E0E9480078E5281CD10020E6490870C3
:1033A000E6480078002815D0E5480078002803D1C9
:1033B000E448007812280DD00020E1490870E14966
:1033C00008701320E04908700AF0C6FF0AF0DEFB1F
:1033D0000BF05DF800BF0FE510B5D7480078D22894
:1033E00018D1D648007800280FD0D8480078002897
:1033F00007D00020D5490870FEF734FC07F060F8CC
:1034000006E01E20D249087002E00020D049087072
:10341000002010BDC8480078F32825D1CD48007899
:10342000012870D1C5480078002818D00120CA4969
:1034300008700BF02CF81E20C54908700320C749FE
:1034400008705120C6490870812048700120C54984
:1034500008700020C44908700BF05EF802E00020FC
:10346000BB4908700020D4E7B3480078F42825D180
:10347000B84800780128D4D1B0480078002818D086
:103480000220B54908700BF002F81E20B049087000
:103490000320B24908705120B14908708220487059
:1034A0000120B04908700020AF4908700BF034F8D3
:1034B00002E00020A64908700020AAE79E48007894
:1034C000F52826D1A3480078012876D19B480078BA
:1034D000002819D00420A04908700AF0D8FF1E2047
:1034E0009B49087003209D49087051209C49087031
:1034F0008320487001209B49087000209A49087079
:103500000BF00AF803E058E0002091490870002011
:103510007FE789480078AB2825D18E4800780128BC
:103520004BD186480078002818D008208A490870B6
:103530000AF0ADFF1E2086490870032087490870F5
:1035400051208749087084204870012085490870FF
:103550000020854908700AF0DFFF02E000207C4966
:103560000870002055E774480078AC2825D17948C8
:103570000078012821D171480078002818D0102047
:10358000754908700AF083FF1E20714908700320F6
:1035900072490870512072490870852048700120D6
:1035A000704908700020704908700AF0B5FF02E009
:1035B00000206749087000202BE7012029E700213F
:1035C0000AE04800694A105C5B4A1278904201D1D7
:1035D00008467047481CC1B2654800888142F0DB4C
:1035E000FF20F6E700B5FFF7EAFF0346FF2B00D107
:1035F00000BD52480078002845D05E480078002879
:1036000019D15D480078002805D058005B49085C56
:103610004949087081E05A480078002805D05800D0
:103620005849085C4449087077E058004F49085CE5
:103630004149087071E050480078002806D05800D1
:103640004E49401840783C49087010E04C480078DA
:10365000002806D058004B49401840783649087079
:1036600005E0580041494018407833490870D810A7
:103670004549085C5907490F444A515C0843D91031
:10368000414A505449E03C480078002805D0580091
:103690003A49085C284908700EE03948007800284B
:1036A00005D058003749085C2349087004E05800E9
:1036B0002E49085C20490870D8103349085C590726
:1036C000490F324A515C0840002826D02A48007829
:1036D000002806D05800294940184078164908703B
:1036E00010E027480078002806D0580025494018E7
:1036F00040781149087005E058001C49401840788E
:103700000D490870D8102049085C5907490F1F4A15
:10371000515C8843D9101C4A505400BF68E710B56B
:1037200005480078002878D0FFF75CFFFFF754FECB
:1037300000282DD110BD00003A0100204D010020CD
:103740001D020020EC010020EE01002055010020A8
:1037500056010020E401002058010020D50100207E
:10376000C5010020C4010020E1010020FA6C000026
:103770005C6D00004C01002057010020C06D00006E
:103780007E0100205E6D000044010020726E00008A
:10379000FFF752F8FE480078002800D110BDFD4820
:1037A000007800280ED0FA480078A32803D1A22080
:1037B000F749087006E0F6480078A22802D1A32055
:1037C000F3490870F448007801280ED1F0480078D9
:1037D000A32800D1E2E7EE480078A72800D1DDE772
:1037E000EB480078652874D1D8E7E94800789D282F
:1037F00014D1EA48007801280ED1E9480078401C2D
:10380000E749087008460078032801DB00200870AB
:103810000AF03DFEFEF7E1FBC0E75AE1DC48007824
:103820009E2816D1DD48007801280ED1DD480078A9
:10383000002803D00020DB49087002E00120D949AC
:1038400008700AF024FEFEF7C8FB0020D04908707B
:10385000A4E7CF480078DB282AD1D0480078002898
:1038600025D00AF059FE0120CA4908700AF00FFE5F
:103870000020C9490870002404E00020CA49085506
:10388000601CC4B2082CF8DBC8480078002805D1B9
:103890000822C5490120FCF761FF05E0C348007814
:1038A000012801D101F001FD0A2002F0DEFC75E7DC
:1038B000B7480078AD2828D1B8480078002823D030
:1038C0000AF02AFE0020B34908700AF0E0FD002447
:1038D00005E01AE00020B4490855601CC4B2082C69
:1038E000F8DBB2480078002805D10822AE49012053
:1038F000FCF734FF05E0AD480078012801D101F064
:10390000D4FC0A2002F0B1FC48E7A6480078002861
:1039100022D0A048007800281ED09D480078382882
:1039200003D152209A49087016E09948007865281A
:1039300003D15120964908700EE095480078A428DC
:1039400003D14F209249087006E091480078A628DC
:1039500002D150208E4908709548007840210840D7
:10396000002804D1FEF7D1FD002800D116E79148C8
:1039700000782021084000280FD085480078A22830
:1039800003D100208249087008E7814800782B287D
:1039900003D100207E49087000E786480078402166
:1039A000084000280FD07A480078A22803D10020D0
:1039B00077490870F2E6764800783D2803D1002068
:1039C00073490870EAE672480078A52809D173485F
:1039D0000078012802D17849087002E00020764979
:1039E00008706B48007852280FD17348007800287F
:1039F0000BD16A480078002803D001206F49087075
:103A00001CE000206D49087018E0614800785228D9
:103A100014D169480078002810D068480078002840
:103A20000CD138205A4908705C480078012802D12E
:103A30006349087002E0002061490870544800782A
:103A4000522811D15C48007800280DD15C480078DC
:103A5000002809D051480078002805D138204C4969
:103A6000087000205649087049480078AF281ED1D8
:103A7000002047490870012052490870002052492F
:103A8000087046480078012800D108704148007845
:103A900000280BD001204D49087000204249C87110
:103AA0003E480078002801D00120C87176E64848D9
:103AB0000078122804D147480078012800D16DE62B
:103AC00045480078002802D0FEF787FA66E6FEF740
:103AD000F2FA00BF62E610B5002440480078401CAE
:103AE0003E49087008460078142839DB0020087029
:103AF0003B48007801283AD13A480078002801D1A3
:103B0000394C12E037480078012802D1432464027E
:103B10000BE034480078022801D1344C05E03148EC
:103B20000078032801D18724240231480078205CE2
:103B3000002816D02E480078205C154908702C48C3
:103B40000078401C2A49087008460078205C134918
:103B5000087027480078401C25490870FFF7DFFDF2
:103B600063E000201E490870FEF737FA5DE0214847
:103B70000078002859D020480078401C1E49087061
:103B800008460078C007C00F00283AD036E0000091
:103B90003A01002057010020520100204D01002071
:103BA000590100207E01002063010020E401002073
:103BB000AE010020AD0100207F0100208101002026
:103BC00080010020360100204C0100205E01002011
:103BD000EC01002012020020540100207901002095
:103BE00050010020770100208085000080860000C1
:103BF000760100205101002094010020FEF7EDF92C
:103C00000CE00120F9490870F94800784010F949A2
:103C10000968085CF8490870FEF74DFAF448007826
:103C2000072802DB0020F549087010BD70B501209F
:103C3000F3490870F3480078072836D1F248007835
:103C40004000F2490C5CF04800784000401845788C
:103C5000E000EF494018445DE4480078002818D09F
:103C6000EC480078401EEC490855EC4800780828DC
:103C700003D1204607F036F910E0E8480078FF2825
:103C80000CD1E7480079012808D1204607F02AF92D
:103C900004E0E0480078801EDF490855DE48005DFA
:103CA000E049085CE0490855E9E1D6480078082871
:103CB0006CD1CE480078002868D0D3480078400006
:103CC000D2490D5CD0480078400040184478D7486D
:103CD000045DD748405D2043D5494855D548405DEF
:103CE0002043D4494855012416E0601ED049085CA1
:103CF000095D0843611ECE4A50540E20001BCD4979
:103D0000085C0E21091B491ECA4A515C08430E215A
:103D1000091B5054601CC4B20E2CE6DB002432E0B8
:103D2000C348005DC349095D08430546002626E0F7
:103D3000E807C00F00281FD0FF20E100B44A89180F
:103D4000895DB94A5054B5480078082806D1E10089
:103D5000AF4A8918885D07F0C5F80DE0AF480078D4
:103D6000FF2809D1AE480079012805D1E100A84A11
:103D70008918885D07F0B6F86D10701CC6B2062E63
:103D8000D6DB601CC4B20E2CCADB78E19D480078FB
:103D9000092832D19C48007840009C490C5C9A4824
:103DA0000078400040184578E00099494018445D8B
:103DB0008E480078002803D000209749085515E068
:103DC00001209549085595480078082803D12046D8
:103DD00007F088F80AE091480078FF2806D190485B
:103DE0000079012802D1204607F07CF88A48005D5E
:103DF0008C49085C8C49085541E1824800780F28BD
:103E00006ED17A48007800286AD07F480078400058
:103E10007E490D5C7C480078400040184478834817
:103E2000045D83484455834844558348445583483A
:103E300044557A480078082806D1E900744A891860
:103E4000085D07F04FF80DE074480078FF2809D1AD
:103E500073480079012805D1E9006D4A8918085D89
:103E600007F040F8002438E07148005D7149095DB1
:103E700008437149095D08437049095D08430546D7
:103E8000002626E0E807C00F00281FD0FF20E10031
:103E90005F4A8918895D644A505460480078082850
:103EA00006D1E1005A4A8918885D07F01BF80DE039
:103EB0005A480078FF2809D159480079012805D1CE
:103EC000E100534A8918885D07F00CF86D10701CEA
:103ED000C6B2062ED6DB601CC4B20E2CC4DBCEE00C
:103EE0004848007812284AD140480078002846D037
:103EF00053480078012800D100E00020514909789A
:103F0000002901D1012100E000210840002835D01E
:103F10003D48007840003D490C5C3B48007840003B
:103F200040184578E0003A494018445D3B48007825
:103F300008280CDA4448005DFF2804D1374800788F
:103F40004149085517E0FF203F49085513E03E4816
:103F5000005DFF2803D100203B49085504E03A48A2
:103F6000005D401C384908553748005D082802DBD1
:103F7000FF20354908550120344908707FE0214869
:103F8000007813287BD119480078002877D01E4884
:103F9000007840001D490D5C1B4800784000401827
:103FA00044783F202249485522494855002464E07E
:103FB0001F48005D1F49095D08430546002658E07B
:103FC000E807C00F002851D0FF20E100104A8918EF
:103FD000895D154A505411480078082838D1E1000D
:103FE0000B4A8918885D06F07DFF3FE04D010020F7
:103FF00094010020900100203A010020510100208E
:104000007A010020EC01002039010020A87B00008B
:10401000887C0000D0780000F6050020FF01002019
:10402000A401002050780000D60D0020726E000020
:10403000B4040020C2040020D0040020DE040020CC
:10404000120200204C010020FA040020EF010020A1
:10405000F9480078FF2809D1F8480079012805D1EE
:10406000E100F74A8918885D06F03CFF6D10701C6E
:10407000C6B2062EA4DB601CC4B20E2C98DB70BD49
:1040800010B5F0480078F049F04A127888540020C2
:10409000EF49087039E0EF480078C007C00F0028EA
:1040A00024D0EA480078C000E94909784018EA4974
:1040B00008700020E94908704B20C000E8490860FA
:1040C000E0480078C007C00F002802D00120E34973
:1040D0000870FFF7ABFDE348DF490978405CE2492F
:1040E00008700020E1490870FFF719FBD5480078F7
:1040F0004010D4490870D74800784010D54908705E
:10410000D3480078401CD2490870D148007808286C
:10411000C1DB10BD10B5D6480078002847D0CA488A
:10412000CA490978405CC74909784840C9490870BC
:1041300008460078002827D0CE480078002807D10C
:104140000220CC490870BF480078CB49087029E0AC
:10415000C9480078BB49097888420DD1C548007824
:10416000401EC44908700846007800281AD1C24988
:104170000870FFF785FF15E00220BE490870B148BE
:104180000078BD4908700DE00020BA490870AF48BA
:104190000078401CAD490870084600780E2801DB05
:1041A00000200870FFF797FC0020B1490870B34861
:1041B0000078002804D00020B0490870FEF7E1F82C
:1041C00010BDAF484068FF2109028843AC494860F0
:1041D000AC484068400A4002AA494860704700B5B0
:1041E0009A480078030002F099FB150C151E273041
:1041F00039424B545C646C747C848C949DA6AFB83B
:10420000C1009F48406AFF210131884340189C4902
:104210004862ACE09A48406A01214902884340184C
:1042200097494862A3E09648406A01218902884381
:104230004018934948629AE09148406A0121C902B6
:10424000884340188E49486291E08D48406A0121B8
:104250000903884340188A49486288E08848406AD0
:104260000121490388434018854948627FE084481A
:10427000406A01218903884340188149486276E0F9
:104280007F48406A0121C903884340187C4948623D
:104290006DE07C48406A40084000401C7949486213
:1042A00065E07848406A02218843801C754948626D
:1042B0005DE07448406A04218843001D71494862EA
:1042C00055E07048406A0821884308306D494862CB
:1042D0004DE06C48406A10218843103069494862BB
:1042E00045E06848406A202188432030654948629B
:1042F0003DE06448406A402188434030614948625B
:1043000035E06048406A8021884380305D494862DA
:104310002DE05C48406AFF2101318843401859492B
:10432000486224E05748406A012149028843401806
:10433000544948621BE05348406A0121890288437E
:1043400040185049486212E04E48406A0121C902B3
:10435000884340184B49486209E04A48406A0121B5
:104360000903884340184749486200E000BF00BF86
:1043700000BD43480068FF210902884340490860A6
:1043800040480068400A40023E49086070473C4887
:104390004068FF21090208433949486039484068AC
:1043A0003949084337494860704710B50024FFF782
:1043B000EEFFFFF7DEFFFFF712FF0A2001F03BFFE1
:1043C000324800680121C9020840002801D00220BB
:1043D00004432E480068012189020840002801D0CA
:1043E00004200443294800680121490208400028AC
:1043F00001D00820044325480068FF21013108400E
:10440000002801D010200443204800688021084083
:10441000002801D020200443204610BD1848006821
:10442000FF2109020843164908601648006816492A
:104430000843144908607047FF010020A4010020D0
:10444000887C000032010020FC020020370100209F
:104450003801002034010020390100204D010020E6
:10446000DC010020F66B00003A0100207B010020F7
:10447000310100203501002033010020A00100207F
:104480000040044000600440FF01000000A0044020
:1044900003480078002801D10149087070470000E6
:1044A0001202002010B5F8480078C007C00F00289D
:1044B0000DD0F548007840084000F3490870F348F3
:1044C00002F00AFAF24908600320F249087010BDB0
:1044D000EE4A143A107D517DEB4A1278D207D20F82
:1044E000002A41D0E94A143A107D517DE64A1278FB
:1044F00052085200E44B1A70042825D1022923D116
:104500000123E24A143AD375E14A1378DF4A143A98
:104510001376DF4A12881204130EDC4A143A5376DB
:10452000DB4A12681202130ED84A143A9376D84A1C
:104530001268130ED54A143AD376D74A127810234C
:104540001A43D54B1A7003E0FF23D04A143AD375AF
:104550000022D24B1A80D04B1A70CB4B1A70CC4B26
:104560001A60CC4B1A7020E0C74A127802231A4016
:10457000002A1AD0C84A127810231A40002A14D0F0
:104580000022C64B1A80C44B1A70BF4B1A70C04B26
:104590001A60C34B1A60C14B1A80BF4B1A70BA4BDA
:1045A0001A70BB4B1A60BB4B1A70704710B5BD48F0
:1045B0000078BD490870BB4840784870B948807899
:1045C0008870B848C078C870B648007A0871B54895
:1045D000407A4871B348807A8871B248C07AC8710D
:1045E0000020B2490870B048C079012801D1087094
:1045F00006E0AD48C079022802D10120AB4908701D
:10460000A9480078002803D0A7480078802803D163
:104610001320A749087004E0A3480078401EA4496D
:104620000870A1484079A349087005F0E9FE09F037
:10463000ADFA9D488079A049087001209F49087013
:1046400005F081FF10BD38B500209D4908708E48E7
:104650000078C007C00F00287DD08B480078400844
:1046600040008949087000208C49088095490968F4
:1046700089008B4A12688818844A102101F0A9FC2D
:10468000904800688000864909680858009084486E
:1046900000688D4988421FD10C4620788B490870EC
:1046A000208800092168C90A08432168890C084349
:1046B0002179C9010843854909780843834908706D
:1046C0000020834908708148007880210840002834
:1046D00002D001207E49087000251FE00098C0B27A
:1046E00000990904090E401800990902090E4118A1
:1046F0000098000E08186649096840186449086067
:1047000070480068401C6F490860084600688000D7
:104710006349096808580090281DC5B2402DDDDBAB
:104720006C480078401E6B490870084600780028E5
:1047300011D10320574908705948006866498842DA
:1047400007D1FF2065490870FFF730FF01205C4961
:10475000087001F0A5FC38BD10B54B4A1278022351
:104760001A40002A45D0484A12789A43464B1A709C
:1047700000224A4B1A80574A1278012A2DDD002167
:1047800029E0504A12689200454B1B6898583F4AEE
:1047900050540204140E3D4A4B1CD4540202140E11
:1047A0003A4A8B1CD454040ECB1CD454C2B203041A
:1047B0001B0ED21803021B0ED318020E9A18344B8C
:1047C0001B68D218324B1A603E4A1268521C3D4B8D
:1047D0001A600A1DD1B24029D3DB3E4A1278521E1C
:1047E0003C4B1A701A461278002A02D10322294B38
:1047F0001A7010BD10B52A4B1860364C2170254B2D
:104800001A7010BD014621481438007F1F4B143B1D
:104810005B7F1B02184302468A4206DD00201A4BCA
:1048200018701D4B1870012070470020FCE738B548
:10483000044600200090172C72D012DC132C5CD0A0
:1048400008DC052C4CD0102C4CD0112C4CD0122C48
:1048500071D150E0142C57D0152C57D0162C6AD19A
:104860005CE0F02C7ED008DC182C68D0192C71D0BC
:10487000AB2C5CD0E02C7FD15FE0F12C76D0F22C19
:1048800076D0F32C78D175E02C010020B8020020FE
:10489000B0010020AC010020AE010020C0010020CA
:1048A000B401002080970000A40100201B0200201A
:1048B000EE0100201702002019020020F001002064
:1048C000BD010020B801002080900000AD01002053
:1048D00052010020BC01002040930000FF01002095
:1048E000012038BD0120FCE76A460121C64801F0DD
:1048F00070FB0120F5E70120F3E76A460121C34878
:1049000001F067FB0120ECE70120EAE76A4601219C
:10491000BF4801F05EFB0120E3E701E00120E0E792
:104920006A460121BB4801F054FB0120D9E701F0A0
:10493000C4FB0120D5E71FE014E00120D1E7B64811
:10494000007840218843B44908700120C9E701E09C
:104950000CE00DE0B048007840210843AE490870F3
:104960000120BEE709F093FD0120BAE70120B8E776
:104970000120B6E70120B4E70020B2E770B5A748F0
:10498000067D457D007FA549497F0902084304460D
:10499000A3480078C007C00F00282BD09F48067D91
:1049A000457D007F9D49497F0902084304469C4894
:1049B0000078400840009A490870042E11D128461A
:1049C000FFF735FF00280CD001219448C1759248AB
:1049D000007811210843904908700020914908800F
:1049E000D2E0FF218D48C17500208B4908708D49A8
:1049F0000880C9E08A480078022108400028EFD0EA
:104A000085480078102108400028E9D082480078C5
:104A1000884381490870002082490880142D5CD0A9
:104A20000CDC112D2BD004DC052D10D0102D71D1F4
:104A300019E0122D34D0132DF9D13DE0152D58D0A9
:104A4000162D6AD0172D74D0AB2DF0D182E0022044
:104A5000FFF7D8FE002805D1601C81B20122724800
:104A6000FFF7C8FE8AE00A20FFF7CCFE002805D138
:104A7000601C81B201226D48FFF7BCFE7EE06848F1
:104A8000007802218843664908700A20FFF7BAFEC1
:104A9000002804D1022221466448FFF7ABFE6DE0F6
:104AA0001420FFF7AFFE002805D1601C81B201225F
:104AB0005F48FFF79FFE61E0594800780221884374
:104AC000574908701420FFF79DFE002804D10222E8
:104AD00021465748FFF78EFE50E03020FFF792FE48
:104AE000002805D1601C81B201225248FFF782FEE6
:104AF00044E04B480078022188434949087031203E
:104B0000FFF780FE002804D1022221464948FFF722
:104B100071FE33E028E000E00BE00120FFF772FEB9
:104B2000002805D1601C81B201224348FFF762FED4
:104B300024E03B480078022188433949087001206D
:104B4000FFF760FE002804D1022221463A48FFF711
:104B500051FE13E032480078022188433049087042
:104B600004203649087009E000202E4908802A49AF
:104B700008702B4908703249086000BF00BF002050
:104B80002F4908602F49086070BD10B52B48007888
:104B9000030001F0C3FE0504070A0D101300FFF720
:104BA000EDFE0CE0FFF7D8FD09E0FFF74CFD06E055
:104BB000FFF78EFC03E0FFF775FC00E010BD00BFBF
:104BC00000BFFBE710B517480088401C1549088056
:104BD000084600887D210901884213DD002406E093
:104BE0000021A2000D4814308150601CC4B2102C6A
:104BF000F6DB00200B490880094908700F4908704E
:104C000001F04EFA10BD00000F930000BC970000A9
:104C1000FCA30000BC900000AE010020A402002014
:104C20002C010020C001002000900000C090000076
:104C300040930000C097000080900000AC0100206D
:104C4000B0010020B80100203220FE490880002079
:104C5000FD4908700120FD4908704B20C000FC4947
:104C6000086070470020F84908700120F949087071
:104C7000FF202D30F3490880704700B5F6480068E2
:104C800002210840002845D1F4480078002842D08D
:104C9000F348007800283ED00020F0490870EE4824
:104CA000406A01210843EC4948620920ED49087037
:104CB000A120ED490880002207E0EC48815C501CEF
:104CC0004000E94B1952501CC2B2082AF5DB00BF64
:104CD000E748C068102108401028F9D0E44800686F
:104CE000C0210843E249086000BFE1480068C021D4
:104CF0000840C028F9D0DC480088DD49C86101209F
:104D0000DC4908600020DC490860D5490870C820EB
:104D1000DA49087012E1DA480078002841D0D0481A
:104D2000007800283DD00020D5490870CA48406A64
:104D300001210843C84948621020CA490870A220CE
:104D4000C9490880012206E0CE48805C5100C64B6C
:104D50005852501CC2B2102AF6DB00BFC448C068CB
:104D6000102108401028F9D0C1480068C02108432C
:104D7000BF49086000BFBE480068C0210840C02885
:104D8000F9D0B9480088BA49C8610120B94908601A
:104D90000020B9490860B2490870C820B7490870B6
:104DA000CCE0B948007800283CD0AD480078002815
:104DB00038D00020B4490870A748406A0121084350
:104DC000A54948620320A7490870A320A649088086
:104DD000AE4840788880AD488078488000BFA448BD
:104DE000C068102108401028F9D0A1480068C021EF
:104DF00008439F49086000BF9D480068C0210840E3
:104E0000C028F9D0984800889949C861012099497B
:104E1000086000209849086091490870C8209749A7
:104E200008708BE09A480078002841D08C480078C0
:104E300000283DD00020964908708748406A01212B
:104E4000084385494862022086490870A4208649A3
:104E50000880012206E08F48805C5100824B585246
:104E6000501CC2B2022AF6DB00BF8148C068102184
:104E700008401028F9D07E480068C02108437C49CA
:104E8000086000BF7A480068C0210840C028F9D0F7
:104E9000754800887649C86101207649086000207D
:104EA000754908606E490870C8207449087045E06B
:104EB00079480078002841D06948007800283DD022
:104EC0000020754908706448406A0121084362491E
:104ED0004862032063490870A620634908800022C5
:104EE00007E06E48815C501C40005F4B1952501C1B
:104EF000C2B2022AF5DB00BF5D48C068102108403D
:104F00001028F9D05A480068C02108435849086061
:104F100000BF57480068C0210840C028F9D0524857
:104F200000885349C8610120524908600020524955
:104F300008604B490870C8205049087058480078EC
:104F4000002812D057480088B1280FD14A4800687D
:104F500002280BD100205249087047490860514887
:104F600080784007400F50490870E9E04D480088BC
:104F7000B62817D14B4840885A2813D14948808811
:104F800006280FD13C48006803280BD10020444973
:104F90000870394908604B20C00044490880FFF779
:104FA00061FECDE03F480088B62817D13D484088D3
:104FB0005A2813D13B4880880A280FD12E48006810
:104FC00003280BD10020364908702B49086021497D
:104FD00008703649088036490870B1E031480088C9
:104FE000B62817D12F4840885A2813D12D488088D9
:104FF00007280FD12048006803280BD1002028493A
:1050000008701D490860012029490870322029498B
:10501000086095E023480088B62854D1214840888C
:10502000512850D11F48808877284CD112480068F9
:10503000032848D100201A4908701F4908700E49FA
:1050400008603BE01402002016020020E10100206D
:10505000D8010020E0010020004004405E01002053
:10506000D3010020C70100205A0300206301002063
:1050700000C00140C8010020CC010020D401002064
:10508000610100200A0300205F0100206B01002065
:10509000600100206E010020C4010020C501002035
:1050A000D00100209A030020A4020020E801002083
:1050B0003E020020DC010020D5010020FB490870E1
:1050C000FFF7C2FD3CE0FA480088B62819D1F8483D
:1050D0004088512815D1F6488088762811D1F548A6
:1050E000006803280DD10020F3490870F1490860D9
:1050F000F2490870F2490860EC490870F1490870FB
:105100001EE0EB480088B62811D1E94840885128B4
:105110000DD1E7488088782809D1E648006803283F
:1051200005D10020E4490870E249086008E0E14840
:105130000068032804D90020DE490860DE490870B1
:1051400000BD0021DD4A1170DF49496A0122114387
:10515000DD4A51620321DD4A1170A621DC4A11802B
:105160005821DC4A117001215170002007E0D94913
:105170000A5C411C4900D64B5A52411CC8B2022855
:10518000F5DB00BFD449C968102211401029F9D0BD
:10519000D1490968C0221143CF4A116000BFCE49EE
:1051A0000968C0221140C029F9D0C9490988CA4AF2
:1051B000D1610121C94A11600021BE4A1160C84A6B
:1051C0001170C821C74A11701421C74A1180704755
:1051D000BD49496A01221143BB4A51620321BB4ABE
:1051E0001170A621BA4A1180C0490978012905D158
:1051F0005121B84A11708121517026E0BB490978CC
:10520000022905D15121B34A1170822151701CE04D
:10521000B6490978042905D15121AE4A117083217C
:10522000517012E0B1490978082905D15121A94AE4
:1052300011708421517008E0AC490978102904D11B
:105240005121A44A117085215170002007E0A14925
:105250000A5C411C49009E4B5A52411CC8B20228AC
:10526000F5DB00BF9C49C968102211401029F9D014
:1052700099490968C0221143974A116000BF9649B5
:105280000968C0221140C029F9D091490988924A81
:10529000D1610121914A11600021864A1160904A32
:1052A0001170C8218F4A117070470021904A117007
:1052B0008549496A01221143834A51620921834A7F
:1052C0001170A121824A1180002007E089490A5CFF
:1052D000411C49007E4B5A52411CC8B20828F5DBDC
:1052E00000BF7D49C968102211401029F9D07A49C0
:1052F0000968C0221143784A116000BF76490968E5
:10530000C0221140C029F9D071490988724AD1617F
:105310000121724A11600021664A1160704A1170C1
:10532000C821704A117070476749496A01221143C8
:10533000654A51620321654A1170A621644A1180B1
:105340005121644A117070215170002007E06149B9
:105350000A5C411C49005E4B5A52411CC8B20228EB
:10536000F5DB00BF5C49C968102211401029F9D053
:1053700059490968C0221143574A116000BF564974
:105380000968C0221140C029F9D051490988524A00
:10539000D1610121514A11600021464A1160504AF1
:1053A0001170C8214F4A117014214F4A11800021F9
:1053B000424A117070474B480078002822D0494873
:1053C0000078401E4749087008460078002819D127
:1053D00043480078002815D10120414908703A4817
:1053E000806A01210843384988623B4800690821E6
:1053F0008843394908610846006904218843001D33
:1054000035490861704710B52F49096802221140DB
:1054100000291CD03049496904221140002944D098
:105420002D49C9698AB223490B680968491C214C76
:10543000216059001E4B5A5201211F4A1170264902
:10544000896904229143091D234A91612DE0224973
:10545000496904221140002927D0204909681B4AC4
:10546000127891420CD31849896A01221143164AD5
:10547000916201211A4A11700021184A11600AE054
:1054800016490A680968491C144B19605100104AF2
:10549000515A114AD1611049C969C8B20E49896986
:1054A00004229143091D0C4A916110BD5601002050
:1054B0009A030020CC010020D0010020E10100204F
:1054C000D8010020D501002000400440C701002081
:1054D0005A030020C501002000C00140C80100207F
:1054E000D3010020D4010020E20100205801002057
:1054F0005E0100206301002000B5F74909780B0028
:1055000001F00CFA120A131D28333E49525C6671F1
:105510007C868F99A4AFBAC5F049496A02229143AB
:10552000891CEE4A5162EE48B2E0EC49496A2022F9
:1055300091432031E94A5162E9482A30A8E0E7491D
:10554000496AFF22013291438918E44A5162E448D2
:1055500054309DE0E149496A0122D2029143891801
:10556000DE4A5162DE487E3092E0DC49496A01221F
:10557000920391438918D94A5162D948A83087E0EB
:10558000D849496A0122D20391438918D54A516208
:10559000D348D2307CE0D149496A49084900491CC6
:1055A000CE4A5162D04873E0CC49496A10229143F7
:1055B0001031CA4A5162CC482A3069E0C749496A69
:1055C000802291438031C54A5162C74854305FE020
:1055D000C249496A0122920291438918BF4A516225
:1055E000C1487E3054E0BD49496A012252039143CB
:1055F0008918BA4A5162BC48A83049E0BB49496A97
:10560000082291430831B94A5162B748D2303FE08D
:10561000B249496A082291430831B04A5162B448FC
:1056200036E0AE49496A402291434031AB4A51626B
:10563000AF482A302CE0A949496A0122520291431D
:105640008918A64A5162AA48543021E0A349496A00
:105650000122120391438918A04A5162A4487E3066
:1056600016E0A049496A01225203914389189D4AD4
:1056700051629F48A8300BE09A49496A012292037F
:1056800091438918974A51629948D23000E000BD91
:1056900000BF0188974A11604188516081889160FC
:1056A000C188D1600189116141895161818991610C
:1056B000C189D161018A1162418A5162818A9162F4
:1056C000C18AD162018B1163418B5163818B9163DC
:1056D000C18BD163018C874A403A1162418C51627F
:1056E000818C9162C18CD162018D116300BFCEE7C4
:1056F00000B5794909780B0001F010F9120A0C0F76
:105700001215181B1D202326292C2E3134373A3D23
:10571000734831E072482A302EE0714854302BE053
:105720006F487E3028E06E48A83025E06C48D230C3
:1057300022E06D4820E06C482A301DE06A48543071
:105740001AE069487E3017E06748A83014E06648E0
:10575000D23011E066480FE065482A300CE064481A
:10576000543009E062487E3006E06148A83003E02A
:105770005F48D23000E000BF00BF01885D4A116081
:105780004188516081889160C188D160018911612F
:105790004189516181899161C189D161018A116217
:1057A000418A5162818A9162C18AD162018B1163FF
:1057B000418B5163818B9163C18BD163018C4D4AC5
:1057C000403A116200BD00B5434909780B0001F071
:1057D000A5F8120A1D3044586C80A4B7CADEFAF846
:1057E000F7F6F5F4F3F200200DE041003C4A515A7F
:1057F000002906D03949496A02229143891C374A57
:105800005162411CC8B21528EFDB66E115200DE09E
:105810004100334A515A002906D03049496A2022B2
:10582000914320312D4A5162411CC8B22A28EFDB36
:1058300053E12A200EE04100294A515A002907D09D
:105840002649496AFF22013291438918234A51624D
:10585000411CC8B23F28EEDB3FE13F200EE0410093
:105860001F4A515A002907D01C49496A0122D20215
:1058700091438918194A5162411CC8B25428EEDB81
:105880002BE154200EE04100154A515A002907D05F
:105890001249496A01229203914389180F4A5162C1
:1058A000411CC8B26928EEDB17E169200EE0410017
:1058B0000B4A515A002907D00A49496A0122D203EA
:1058C00091438918074A5162411CC8B27E28EEDB19
:1058D00003E100201EE0000062020020008004407E
:1058E0006809002000600440640A002000A0044011
:1058F000600B0020402000404100FC4A515A002922
:1059000006D0FB49496A49084900491CF84A5162D6
:10591000411CC8B21528EFDBDFE015200DE0410087
:10592000F24A515A002906D0F149496A102291439E
:105930001031EF4A5162411CC8B22A28EFDBCCE09B
:105940002A200DE04100E94A515A002906D0E849D1
:10595000496A802291438031E54A5162411CC8B2B4
:105960003F28EFDBB9E03F200EE04100DF4A515A0B
:10597000002907D0DE49496A012292029143891821
:10598000DB4A5162411CC8B25428EEDBA5E054202A
:105990000EE04100D54A515A002907D0D449496A3E
:1059A0000122520391438918D14A5162411CC8B265
:1059B0006928EEDB91E08FE07AE065E050E03BE0C3
:1059C00027E013E0FFE769200DE04100C74A515A84
:1059D000002906D0C749496A082291430831C54ABF
:1059E0005162411CC8B27E28EFDB76E000200DE05A
:1059F0004100C14A515A002906D0BD49496A0822CE
:105A000091430831BA4A5162411CC8B21528EFDBF4
:105A100063E015200DE04100B74A515A002906D035
:105A2000B349496A402291434031B14A5162411C15
:105A3000C8B22A28EFDB50E02A200EE04100AE4A2F
:105A4000515A002907D0AA49496A012252029143BA
:105A50008918A74A5162411CC8B23F28EEDB3CE0DE
:105A60003F200EE04100A44A515A002907D0A04926
:105A7000496A01221203914389189D4A5162411CCF
:105A8000C8B25428EEDB28E054200EE041009A4AC8
:105A9000515A002907D09949496A0122520391437A
:105AA0008918964A5162411CC8B26928EEDB14E09D
:105AB00069200EE04100904A515A002907D08F49D1
:105AC000496A01229203914389188C4A5162411C10
:105AD000C8B27E28EEDB00E000BF00BF00BD8848F2
